:040000000DEF00F010
:0400080012EF1AF0E9
:06001800FF009EEF1AF04C
:10260000000A3300000000000000DA36000000007D
:10261000683500000000000000000000000000001D
:1026200000000000000000000000000000000000AA
:10263000000000000000000000000000003C360028
:102640001A3600F835000000005468652041444304
:1026500020526573756C742069733A2025640D0AE5
:1026600000001250800B1B6E12501224216E11AE0E
:102670003CEF13F03EEF13F03FEF13F021802150B9
:10268000D8B445EF13F047EF13F05AEF13F02128B9
:10269000D8A44DEF13F04FEF13F057EF13F0000EE7
:1026A0000F6E000E106E000E116E000E126E118E67
:1026B00062EF13F0000E0F6E000E106E000E116E22
:1026C000000E126E1650800B1B1A16501624206E28
:1026D00015AE6DEF13F06FEF13F070EF13F0208075
:1026E0002050D8B476EF13F078EF13F08BEF13F09F
:1026F0002028D8A47EEF13F080EF13F088EF13F0BA
:10270000000E136E000E146E000E156E000E166E87
:10271000158E93EF13F0000E136E000E146E000E64
:10272000156E000E166E2050D8B499EF13F09BEF83
:1027300013F0A3EF13F02150D8A4A1EF13F0A3EFEF
:1027400013F0ADEF13F0000E0F6E000E106E000EC2
:10275000116E000E126E43EF15F015500F02F3C408
:1027600026F5F4C427F526501C6E1D6A1E6A1F6AE2
:102770002750226E236A246A256A14501002F3C47B
:1027800026F5F4C427F526501C26000E1D221E2215
:102790001F2227502226000E2322242225221350F6
:1027A0001102F3C426F5F4C427F526501C26000EAA
:1027B0001D221E221F2227502226000E2322242201
:1027C00025221EC51FF51DC51EF51CC51DF51C6A5D
:1027D00013501002F3C426F5F4C427F526501C2626
:1027E00027501D22000E1E22000E1F2214500F0221
:1027F000F3C426F5F4C427F526501C2627501D22C5
:10280000000E1E22000E1F221EC51FF51DC51EF53F
:102810001CC51DF51C6A13500F02F3C426F5F4C441
:1028200027F526501C2627501D22000E1E22000EC2
:102830001F2215501002F3C426F5F4C427F52650C4
:10284000222627502322000E2422000E2522145077
:102850001102F3C426F5F4C427F52650222627508A
:102860002322000E2422000E252215501102F3C44B
:1028700026F5F4C427F52650176E2750186E196AEE
:102880001A6A19C51AF518C519F517C518F5176A82
:102890001750222618502322195024221A5025227C
:1028A0001CC517F51DC518F51EC519F51FC51AF568
:1028B000190E60EF14F0D8901A321932183217320C
:1028C000E82E5BEF14F017502226185023221950DF
:1028D00024221A5025221EC51FF51DC51EF51CC534
:1028E0001DF51C6A205021C517F5186A1726000E21
:1028F0001822820E1724266EFF0E1820276E96EFE0
:1029000014F0D89022362336243625361FAE8BEFAE
:1029100014F08DEF14F08EEF14F02280D8901C3656
:102920001D361E361F362606D8A0270624AE9BEF7E
:1029300014F09DEF14F081EF14F0206A1FAEA3EFA6
:1029400014F0A5EF14F0C9EF14F0FF0E1C14176E6D
:10295000FF0E1D14186EFF0E1E14196E7F0E1F142D
:102960001A6E1750181019101A10D8B4BAEF14F0C4
:10297000BCEF14F0C0EF14F0010E206EC9EF14F09C
:1029800022A0C5EF14F0C7EF14F0C9EF14F0BCEFAC
:1029900014F02050D8B4CFEF14F0D1EF14F0F5EFCD
:1029A00014F0010E2226000E23222422252225A027
:1029B000DCEF14F0DEEF14F0F5EF14F022C517F59C
:1029C00023C518F524C519F525C51AF51A341A3288
:1029D00019321832173217C522F518C523F519C553
:1029E00024F51AC525F5264A272A27BE00EF15F03B
:1029F000275008E12628D8A000EF15F002EF15F0C7
:102A00000CEF15F0000E226E000E236E800E246E69
:102A10007F0E256E39EF15F027BE19EF15F0275000
:102A200006E12604D8B017EF15F019EF15F024EFE2
:102A300015F0000E226E000E236E000E246E000EA6
:102A4000256E1B6A39EF15F026C521F5FF0E2216FB
:102A5000FF0E23167F0E2416000E251621A033EF3D
:102A600015F035EF15F036EF15F0248ED8902130A3
:102A7000256E1B50251222C50FF523C510F524C560
:102A800011F525C512F512000EC5D9F40FC5DAF4FB
:102A9000DFC4F6F4260EF76E000EF86E0800F5504F
:102AA000250AD8A456EF15F058EF15F029EF16F0C7
:102AB0000EC5D9F40FC5DAF4DF2A000E516E000EF0
:102AC000506E50C556F5526853680EC5D9F40FC5FF
:102AD000DAF4DF50156E15C5F6F4260EF76E000E0B
:102AE000F86E0800F550640AD8B479EF15F07BEF62
:102AF00015F08BEF15F015C5F6F4260EF76E000EE7
:102B0000F86E0800F550690AD8A489EF15F08BEF2C
:102B100015F022EF16F010C5D9F411C5DAF4DFC4B0
:102B200012F5020EDE26DFC413F5000EDD2212C5FB
:102B3000D9F413C5DAF4DEC416F5DDC417F515288B
:102B40000EC5D9F40FC5DAF4DF6E200E1A6E17BE6B
:102B5000ACEF15F0AFEF15F0010EB0EF15F0000E71
:102B6000146E1A06600E1A24D96EDA6A050EDA227D
:102B700016C501F517C502F5000E046E0A0E036EA8
:102B8000DFEC18F001C507F502C508F555EC1AF0A1
:102B90000750300FDF6E16C501F517C502F5000EA0
:102BA000046E0A0E036E7EEC18F001C516F502C520
:102BB00017F516501710D8B4E0EF15F0E2EF15F046
:102BC000EAEF15F01A50D8A4E8EF15F0EAEF15F087
:102BD000B1EF15F01A50D8B4F0EF15F0F2EF15F090
:102BE00017EF16F01450D8B4F8EF15F0FAEF15F00F
:102BF00017EF16F01A06600E1A24D96EDA6A050E5F
:102C0000DA222D0EDF6E17EF16F0600E1A24D96E41
:102C1000DA6A050EDA22DF50126E1250036E046A71
:102C20000CC505F50DC506F519EC18F01A2A200E8D
:102C30001A18D8A41EEF16F020EF16F005EF16F0C4
:102C40003FEF16F00EC5D9F40FC5DAF4DF2A3FEFD7
:102C500016F00EC5D9F40FC5DAF4DFC4F6F4260E6B
:102C6000F76E000EF86E0800F550036E046A0CC58E
:102C700005F50DC506F519EC18F022EF16F0120057
:102C8000096E0950D8B447EF16F049EF16F06BEF14
:102C900016F004BE50EF16F04EEF16F06BEF16F084
:102CA00001C505F502C506F503C507F504C508F518
:102CB000051E061E071E081E052A000E06220722F4
:102CC000082205C50BF506C50CF507C50DF508C5A9
:102CD0000EF573EF16F001C50BF502C50CF503C533
:102CE0000DF504C50EF50150021003100410D8A410
:102CF0007CEF16F07EEF16F088EF16F0000E016EF6
:102D0000000E026E000E036E000E046E19EF17F037
:102D1000960E0A6E92EF16F00A2AD8900E320D32F5
:102D20000C320B32000E0B14056E000E0C14066EE6
:102D3000000E0D14076EFE0E0E14086E05500610E0
:102D400007100810D8A4A7EF16F0A9EF16F08CEF23
:102D500016F0B7EF16F00A2A010E0B26000E0C2211
:102D60000D220E22D8900E320D320C320B32000E94
:102D70000B14056E000E0C14066E000E0D14076E7B
:102D8000FF0E0E14086E0550061007100810D8A488
:102D9000CCEF16F0CEEF16F0ABEF16F0D6EF16F044
:102DA0000A06D8900B360C360D360E360DBEDBEF0C
:102DB00016F0DDEF16F0E5EF16F0020E0A60E3EF15
:102DC00016F0E5EF16F0D0EF16F00AB0EAEF16F0C5
:102DD000ECEF16F0EDEF16F00D9ED8900A320AC512
:102DE00005F5066A076A086A05C508F5076A066AEE
:102DF000056A05500B1206500C1207500D120850B0
:102E00000E120950D8B407EF17F009EF17F011EFC1
:102E100017F004BE10EF17F00EEF17F011EF17F0D8
:102E20000E8E0BC501F50CC502F50DC503F50EC5DB
:102E300004F512002A342B34316E3150D8A423EF1C
:102E400017F025EF17F02FEF17F0000E286E000E89
:102E5000296E000E2A6E000E2B6E9CEF17F028C50F
:102E60002CF529C52DF52AC52EF52BC52FF5200EDD
:102E70003FEF17F0D8902F322E322D322C32E82E21
:102E80003AEF17F02C50306E2A8EFF0E2816FF0EE8
:102E90002916FF0E2A16000E2B16960E315E31BE35
:102EA00056EF17F054EF17F06CEF17F03150800A1F
:102EB000970FD8B05EEF17F060EF17F062EF17F0E2
:102EC00025EF17F0D8902B322A3229322832313EA2
:102ED00062EF17F084EF17F01F0E316472EF17F0F6
:102EE00074EF17F07CEF17F025EF17F0D890283625
:102EF00029362A362B3631063150D8A482EF17F006
:102F000084EF17F076EF17F03050D8B48AEF17F04F
:102F10008CEF17F094EF17F02B1E2A1E291E286C39
:102F2000000E29222A222B2228C528F529C529F599
:102F30002AC52AF52BC52BF51200EBEC1AF071EC23
:102F40001BF0000E87EC1AF001C536F502C537F507
:102F5000C3B6ADEF17F0B0EF17F0010EB1EF17F0F9
:102F6000000EFF0A346E344634463446C3503418DB
:102F7000F70B3418C36EBFB8C0EF17F0C3EF17F0EC
:102F8000010EC4EF17F0000EFF0A346E343ABF5042
:102F90003418EF0B3418BF6E490E216E36C522F57A
:102FA00037C523F5DAEC1AF0000E136E000E146E1E
:102FB000400E156E400E166E03012351346E356AB5
:102FC000010E3426000E352234C501F535C502F553
:102FD000000E02BEFF0E036E046E010E40EC16F0F2
:102FE00001C50FF502C510F503C511F504C512F5AD
:102FF00031EC13F00FC528F510C529F511C52AF5D8
:1030000012C52BF51AEC17F028C532F529C533F592
:103010006FEC1AF0190E356E5A0E346EB20EE82EA1
:10302000FED7342EFCD7352EFAD79FEF17F00DEFD1
:1030300000F005500610D8B420EF18F022EF18F079
:103040002BEF18F005500610D8A429EF18F02BEF3D
:1030500018F030EF18F003502FEC1BF07DEF18F054
:1030600020EE09F00550D9260650DA22DE50DE1097
:10307000D8B43DEF18F03FEF18F05AEF18F020EEFB
:1030800009F00550D9260650DA2210EE02F005505C
:10309000E1260650E222DE50E65CE650800A0B6E26
:1030A000DE50800A0B58D8B058EF18F05AEF18F0DD
:1030B0007DEF18F020EE02F00550D9260650DA22F6
:1030C000DEC407F5DDC408F505C5D9F406C5DAF494
:1030D000DEC409F5DDC40AF507500924D96E08508D
:1030E0000A20DA6E03C5DFF420EE02F00550D9267F
:1030F0000650DA22DE2A000EDD221200066A04BE25
:1031000086EF18F084EF18F08CEF18F0036C041EB3
:10311000D8B0042A010E066E02BE93EF18F091EFAC
:1031200018F099EF18F0016C021ED8B0022A010EB7
:10313000061A000E086E000E076E03500410D8B475
:10314000A4EF18F0A6EF18F0CEEF18F0010E056E00
:10315000AEEF18F0D89003360436052A04AEB3EF6C
:1031600018F0B5EF18F0AAEF18F0D8900736083627
:103170000350015C04500258D8A0C1EF18F0C3EF0F
:1031800018F0C8EF18F00350015E0450025A07808F
:10319000D89004320332052EB5EF18F00650D8B49B
:1031A000D4EF18F0D6EF18F0DAEF18F0076C081E1D
:1031B000D8B0082A07C501F508C502F51200066A4D
:1031C00002BEE7EF18F0E5EF18F0EDEF18F0016C34
:1031D000021ED8B0022A010E066E04BEF4EF18F0EB
:1031E000F2EF18F0F8EF18F0036C041ED8B0042AC0
:1031F00003500410D8B4FFEF18F001EF19F025EFD9
:1032000019F0010E056E09EF19F0D8900336043657
:10321000052A04AE0EEF19F010EF19F005EF19F0C2
:103220000350015C04500258D8A019EF19F01BEFAD
:1032300019F01FEF19F00350015E0450025AD890A4
:1032400004320332052E10EF19F00650D8B42BEFDC
:1032500019F02DEF19F031EF19F0016C021ED8B002
:10326000022A01C501F502C502F51200BE6ABF6A55
:10327000C06AC16AC26AC36A0401026B0A6B126B3C
:103280001A6B226B2A6BC668EF0EC76EFB0EC86EF8
:10329000C9680F0ECA6EF60ECB6E0069EF0E086F8E
:1032A00010691869070E206FF40E286F016B096B07
:1032B000116B196B216B296B03690B6913691B690E
:1032C000070E236F2B6904690C6914691C690F0EC2
:1032D000246F2C690201896B886B876B866B290EC2
:1032E000726F200E296F120E4F6F150E136F0401AF
:1032F000056B066B076B0D6B0E6B0F6B156B166B0F
:10330000176B256B266B276B12000201A16BA26B5A
:10331000A36BA46BA56BA66BA76BA86BA96BAA6B21
:10332000B00EAB6F800EAC6F080EAD6F8A0EAE6F35
:10333000AF6B2E0EB06FB16B800EB26FB36B000E21
:10334000016E000E026E000E036E1EEC1BF0000EEE
:10335000016E000E026E000E036E0DEC1BF0000EEF
:10336000016E000E026E000E036EFCEC1AF0000EF1
:10337000556E000E546E12000301F39FD96BDA6B89
:10338000DB6BDC6BDF6BE06BE56BE76BEC6BEE6BC9
:10339000EF6BD86BF06BF16BF26BF46B180EF56F93
:1033A000100EF66FF76BF86B1F0EFA6FF96B000ECD
:1033B0004D6E000E4E6E000E4F6E000E4A6E000EE9
:1033C0004B6E000E4C6E576AAF949F94B090A090D5
:1033D000840EF36F12001DC520F5FDEF19F01BC51B
:1033E0000CF51CC50DF5200E0E6E050E0F6E1EC5DC
:1033F00010F51FC511F544EC15F020C5F6F4260EA6
:10340000F76E000EF86E0800F5500009D8A40BEF17
:103410001AF00DEF1AF0EFEF19F0000E1C6E000E0F
:103420001B6E12009FA417EF1AF019EF1AF024EF89
:103430001AF0AFA41EEF1AF020EF1AF024EF1AF0E2
:1034400077EC1BF034EF1AF0A0A029EF1AF02BEF65
:103450001AF034EF1AF0B0A030EF1AF032EF1AF091
:1034600034EF1AF075EC1BF01100D69AAF90D680AD
:10347000000E016E000E026E000E036E60EC1BF07B
:10348000B490D682000E016E000E026E000E036E26
:1034900059EC1BF0B890D684000E016E000E026E3F
:1034A000000E036E52EC1BF0120008BE5AEF1AF029
:1034B0005CEF1AF062EF1AF007C507F508C508F5CA
:1034C0006EEF1AF007C509F508C50AF5091E0A1EB0
:1034D000094A0A2A09C507F50AC508F51200FF0EB0
:1034E0003216030E3316030142A979EF1AF07BEF6F
:1034F0001AF082EF1AF0060ED89032363336E82EE4
:103500007CEF1AF03350416F32C540F31200056E64
:1035100005C5ECF30301F39DF381F3B192EF1AF0CB
:1035200094EF1AF08DEF1AF0EB51046E036AEA5132
:103530000324016E000E0420026E120001EE60F101
:10354000200EEE6AE806FDE101EE38F1200EEE6A8B
:10355000E806FDE10401080E5D6F000E5E6F000ECF
:103560005F6F00019DEF17F0016A0201B0ABBBEF86
:103570001AF0BDEF1AF0C6EF1AF0ABABC2EF1AF0BB
:10358000C4EF1AF0C6EF1AF0010E016E01501200DE
:10359000010E0301266F256B276B7C0E236F226BB8
:1035A000000E586E000E596E000E5A6EB196F00E57
:1035B000246F1200220E246E050E256E000E1B6E67
:1035C000000E1C6E21C51DF5240E1E6E050E1F6E0D
:1035D000EBEC19F012003EEC1BF036EC19F0BCECF1
:1035E00019F0C8EC1AF048EC1BF085EC19F067EC08
:1035F0001BF035EC1AF01200015002100310D8B481
:1036000004EF1BF006EF1BF00CEF1BF001C538F5C3
:1036100002C539F503C53AF5120001500210031036
:10362000D8B415EF1BF017EF1BF01DEF1BF001C511
:103630003BF502C53CF503C53DF5120001500210F3
:103640000310D8B426EF1BF028EF1BF02EEF1BF071
:1036500001C53EF502C53FF503C540F51200026EF7
:10366000B4EC1AF00009D8B438EF1BF03AEF1BF0B5
:1036700030EF1BF002506DEC1BF01200600E0001E9
:10368000AD6FAF6BB36B080EB16FB06BAC6B12006C
:103690008C0E0301426F416B40694C51FC0B0109D8
:1036A0004C6F120001C541F502C542F503C543F553
:1036B000120001C544F502C545F503C546F51200E3
:1036C00001C547F502C548F503C549F512000001DB
:1036D000786B796B300EF06E1200016E01C5A3F2AB
:1036E00012003B0E0301EC6F1200B0901200AF9479
:0236F0001200C6
:020000040030CA
:080000008FFFF7FF9FFFFFFFD8
:01000900FFF7
:00000001FF
